:1000000009C024C023C022C021C020C02CC01EC0F3
:10001000FCC01CC011241FBECFE9CDBF10E0A0E67C
:10002000B0E0E0EBF2E002C005900D92AC36B10713
:10003000D9F720E0ACE6B0E001C01D92AA37B207C4
:10004000E1F700E401BD789493D030C1D9CF98E0B6
:1000500087FF07C0C09A880FC19AC1989150C1F715
:100060000895C098F8CF1F920F920FB60F921124E7
:100070002F933F934F935F936F937F938F939F93B0
:10008000AF93BF93CF93DF93EF93FF9320916E00D5
:10009000223009F44AC0B4F5222309F45FC02130AC
:1000A00009F452C0C0916C00D0916D00C49881E0F9
:1000B00001C0880F2A95EAF7CADFDD27C05ADF4F53
:1000C00088818095C4DFC49A80916E00082E000C50
:1000D000990B019665E070E0D6D080936E00FF9199
:1000E000EF91DF91CF91BF91AF919F918F917F91D0
:1000F0006F915F914F913F912F910F900FBE0F9095
:100100001F901895233049F08AE090E0243051F692
:1001100090936D0080936C00C5CF80916F0090919B
:1001200070006AE070E09BD0F3CF80916F009091F7
:10013000700064E670E093D06AE070E090D0709355
:100140006D0060936C00AECF80916F009091700055
:1001500068EE73E084D064E670E0F0CF80916F00C9
:100160009091700060E177E27AD068EE73E0E6CFBC
:1001700087B3836187BB18BA479AA29A389A86B127
:10018000866886B982E08FBD83E083BF8EE286BF3A
:1001900084E089BF78944091710050917200609121
:1001A0007300709174002AD084179507A607B707CB
:1001B000D0F3369A3699FECF64B175B190E080E005
:1001C0002CE735E140E050E031D02AE09695879564
:1001D000779567952A95D1F77093700060936F00BB
:1001E0000DD0885A9D4FAF4FBF4F809371009093B1
:1001F0007200A0937300B0937400CDCFE5E7F8943C
:1002000081919191A191B1911895EF93EFB7EF93EF
:100210000F93E5E700810D5E02C000810F4F01934F
:10022000E0F70F91EF91EFBFEF911895EE27FF27C1
:10023000AA27BB2708C0A20FB31FE41FF51F220F78
:10024000331F441F551F969587957795679598F3AB
:100250007040A9F7009799F7BD01CF010895AA1B37
:10026000BB1B51E107C0AA1FBB1FA617B70710F0A1
:10027000A61BB70B881F991F5A95A9F780959095D3
:10028000BC01CD01089597FB072E16F4009406D00B
:1002900077FD08D0E4DF07FC05D03EF4909581950A
:1002A0009F4F0895709561957F4F0895F894FFCF03
:0C02B0003F065B4F666D7D077F6F4000CE
:00000001FF
